{
  "_format": "hh-sol-artifact-1",
  "contractName": "JetRWA",
  "sourceName": "contracts/JetRWA.sol",
  "abi": [
    {
      "inputs": [
        {
          "internalType": "string",
          "name": "_name",
          "type": "string"
        },
        {
          "internalType": "string",
          "name": "_symbol",
          "type": "string"
        },
        {
          "internalType": "string",
          "name": "_tailNumber",
          "type": "string"
        },
        {
          "internalType": "string",
          "name": "_manufacturer",
          "type": "string"
        }
      ],
      "stateMutability": "nonpayable",
      "type": "constructor"
    },
    {
      "inputs": [
        {
          "internalType": "address",
          "name": "spender",
          "type": "address"
        },
        {
          "internalType": "uint256",
          "name": "allowance",
          "type": "uint256"
        },
        {
          "internalType": "uint256",
          "name": "needed",
          "type": "uint256"
        }
      ],
      "name": "ERC20InsufficientAllowance",
      "type": "error"
    },
    {
      "inputs": [
        {
          "internalType": "address",
          "name": "sender",
          "type": "address"
        },
        {
          "internalType": "uint256",
          "name": "balance",
          "type": "uint256"
        },
        {
          "internalType": "uint256",
          "name": "needed",
          "type": "uint256"
        }
      ],
      "name": "ERC20InsufficientBalance",
      "type": "error"
    },
    {
      "inputs": [
        {
          "internalType": "address",
          "name": "approver",
          "type": "address"
        }
      ],
      "name": "ERC20InvalidApprover",
      "type": "error"
    },
    {
      "inputs": [
        {
          "internalType": "address",
          "name": "receiver",
          "type": "address"
        }
      ],
      "name": "ERC20InvalidReceiver",
      "type": "error"
    },
    {
      "inputs": [
        {
          "internalType": "address",
          "name": "sender",
          "type": "address"
        }
      ],
      "name": "ERC20InvalidSender",
      "type": "error"
    },
    {
      "inputs": [
        {
          "internalType": "address",
          "name": "spender",
          "type": "address"
        }
      ],
      "name": "ERC20InvalidSpender",
      "type": "error"
    },
    {
      "inputs": [
        {
          "internalType": "address",
          "name": "owner",
          "type": "address"
        }
      ],
      "name": "OwnableInvalidOwner",
      "type": "error"
    },
    {
      "inputs": [
        {
          "internalType": "address",
          "name": "account",
          "type": "address"
        }
      ],
      "name": "OwnableUnauthorizedAccount",
      "type": "error"
    },
    {
      "anonymous": false,
      "inputs": [
        {
          "indexed": true,
          "internalType": "address",
          "name": "owner",
          "type": "address"
        },
        {
          "indexed": true,
          "internalType": "address",
          "name": "spender",
          "type": "address"
        },
        {
          "indexed": false,
          "internalType": "uint256",
          "name": "value",
          "type": "uint256"
        }
      ],
      "name": "Approval",
      "type": "event"
    },
    {
      "anonymous": false,
      "inputs": [
        {
          "indexed": true,
          "internalType": "address",
          "name": "by",
          "type": "address"
        },
        {
          "indexed": false,
          "internalType": "uint256",
          "name": "amount",
          "type": "uint256"
        }
      ],
      "name": "DividendsClaimed",
      "type": "event"
    },
    {
      "anonymous": false,
      "inputs": [
        {
          "indexed": true,
          "internalType": "address",
          "name": "from",
          "type": "address"
        },
        {
          "indexed": false,
          "internalType": "uint256",
          "name": "amount",
          "type": "uint256"
        }
      ],
      "name": "DividendsDeposited",
      "type": "event"
    },
    {
      "anonymous": false,
      "inputs": [
        {
          "indexed": true,
          "internalType": "uint256",
          "name": "id",
          "type": "uint256"
        },
        {
          "indexed": false,
          "internalType": "string",
          "name": "description",
          "type": "string"
        },
        {
          "indexed": false,
          "internalType": "uint256",
          "name": "cost",
          "type": "uint256"
        }
      ],
      "name": "MaintenanceRecorded",
      "type": "event"
    },
    {
      "anonymous": false,
      "inputs": [
        {
          "indexed": true,
          "internalType": "address",
          "name": "previousOwner",
          "type": "address"
        },
        {
          "indexed": true,
          "internalType": "address",
          "name": "newOwner",
          "type": "address"
        }
      ],
      "name": "OwnershipTransferred",
      "type": "event"
    },
    {
      "anonymous": false,
      "inputs": [
        {
          "indexed": false,
          "internalType": "uint256",
          "name": "newPrice",
          "type": "uint256"
        }
      ],
      "name": "SharePriceUpdated",
      "type": "event"
    },
    {
      "anonymous": false,
      "inputs": [
        {
          "indexed": true,
          "internalType": "address",
          "name": "buyer",
          "type": "address"
        },
        {
          "indexed": false,
          "internalType": "uint256",
          "name": "amount",
          "type": "uint256"
        },
        {
          "indexed": false,
          "internalType": "uint256",
          "name": "cost",
          "type": "uint256"
        }
      ],
      "name": "SharesPurchased",
      "type": "event"
    },
    {
      "anonymous": false,
      "inputs": [
        {
          "indexed": true,
          "internalType": "address",
          "name": "from",
          "type": "address"
        },
        {
          "indexed": true,
          "internalType": "address",
          "name": "to",
          "type": "address"
        },
        {
          "indexed": false,
          "internalType": "uint256",
          "name": "value",
          "type": "uint256"
        }
      ],
      "name": "Transfer",
      "type": "event"
    },
    {
      "anonymous": false,
      "inputs": [
        {
          "indexed": true,
          "internalType": "address",
          "name": "user",
          "type": "address"
        },
        {
          "indexed": false,
          "internalType": "bool",
          "name": "status",
          "type": "bool"
        }
      ],
      "name": "WhitelistUpdated",
      "type": "event"
    },
    {
      "inputs": [
        {
          "internalType": "address",
          "name": "owner",
          "type": "address"
        },
        {
          "internalType": "address",
          "name": "spender",
          "type": "address"
        }
      ],
      "name": "allowance",
      "outputs": [
        {
          "internalType": "uint256",
          "name": "",
          "type": "uint256"
        }
      ],
      "stateMutability": "view",
      "type": "function"
    },
    {
      "inputs": [
        {
          "internalType": "address",
          "name": "spender",
          "type": "address"
        },
        {
          "internalType": "uint256",
          "name": "value",
          "type": "uint256"
        }
      ],
      "name": "approve",
      "outputs": [
        {
          "internalType": "bool",
          "name": "",
          "type": "bool"
        }
      ],
      "stateMutability": "nonpayable",
      "type": "function"
    },
    {
      "inputs": [
        {
          "internalType": "address",
          "name": "account",
          "type": "address"
        }
      ],
      "name": "balanceOf",
      "outputs": [
        {
          "internalType": "uint256",
          "name": "",
          "type": "uint256"
        }
      ],
      "stateMutability": "view",
      "type": "function"
    },
    {
      "inputs": [
        {
          "internalType": "uint256",
          "name": "shareAmount",
          "type": "uint256"
        }
      ],
      "name": "buyShares",
      "outputs": [],
      "stateMutability": "payable",
      "type": "function"
    },
    {
      "inputs": [],
      "name": "claimDividends",
      "outputs": [],
      "stateMutability": "nonpayable",
      "type": "function"
    },
    {
      "inputs": [],
      "name": "decimals",
      "outputs": [
        {
          "internalType": "uint8",
          "name": "",
          "type": "uint8"
        }
      ],
      "stateMutability": "view",
      "type": "function"
    },
    {
      "inputs": [],
      "name": "depositRevenue",
      "outputs": [],
      "stateMutability": "payable",
      "type": "function"
    },
    {
      "inputs": [],
      "name": "getMaintenanceCount",
      "outputs": [
        {
          "internalType": "uint256",
          "name": "",
          "type": "uint256"
        }
      ],
      "stateMutability": "view",
      "type": "function"
    },
    {
      "inputs": [],
      "name": "isSaleOpen",
      "outputs": [
        {
          "internalType": "bool",
          "name": "",
          "type": "bool"
        }
      ],
      "stateMutability": "view",
      "type": "function"
    },
    {
      "inputs": [
        {
          "internalType": "address",
          "name": "",
          "type": "address"
        }
      ],
      "name": "isWhitelisted",
      "outputs": [
        {
          "internalType": "bool",
          "name": "",
          "type": "bool"
        }
      ],
      "stateMutability": "view",
      "type": "function"
    },
    {
      "inputs": [
        {
          "internalType": "uint256",
          "name": "",
          "type": "uint256"
        }
      ],
      "name": "maintenanceHistory",
      "outputs": [
        {
          "internalType": "uint256",
          "name": "timestamp",
          "type": "uint256"
        },
        {
          "internalType": "string",
          "name": "description",
          "type": "string"
        },
        {
          "internalType": "uint256",
          "name": "cost",
          "type": "uint256"
        },
        {
          "internalType": "string",
          "name": "serviceProvider",
          "type": "string"
        }
      ],
      "stateMutability": "view",
      "type": "function"
    },
    {
      "inputs": [],
      "name": "manufacturer",
      "outputs": [
        {
          "internalType": "string",
          "name": "",
          "type": "string"
        }
      ],
      "stateMutability": "view",
      "type": "function"
    },
    {
      "inputs": [
        {
          "internalType": "address",
          "name": "to",
          "type": "address"
        },
        {
          "internalType": "uint256",
          "name": "amount",
          "type": "uint256"
        }
      ],
      "name": "mintShares",
      "outputs": [],
      "stateMutability": "nonpayable",
      "type": "function"
    },
    {
      "inputs": [],
      "name": "name",
      "outputs": [
        {
          "internalType": "string",
          "name": "",
          "type": "string"
        }
      ],
      "stateMutability": "view",
      "type": "function"
    },
    {
      "inputs": [],
      "name": "owner",
      "outputs": [
        {
          "internalType": "address",
          "name": "",
          "type": "address"
        }
      ],
      "stateMutability": "view",
      "type": "function"
    },
    {
      "inputs": [
        {
          "internalType": "string",
          "name": "_description",
          "type": "string"
        },
        {
          "internalType": "uint256",
          "name": "_cost",
          "type": "uint256"
        },
        {
          "internalType": "string",
          "name": "_serviceProvider",
          "type": "string"
        }
      ],
      "name": "recordMaintenance",
      "outputs": [],
      "stateMutability": "nonpayable",
      "type": "function"
    },
    {
      "inputs": [],
      "name": "renounceOwnership",
      "outputs": [],
      "stateMutability": "nonpayable",
      "type": "function"
    },
    {
      "inputs": [
        {
          "internalType": "bool",
          "name": "_isOpen",
          "type": "bool"
        }
      ],
      "name": "setSaleStatus",
      "outputs": [],
      "stateMutability": "nonpayable",
      "type": "function"
    },
    {
      "inputs": [
        {
          "internalType": "uint256",
          "name": "_price",
          "type": "uint256"
        }
      ],
      "name": "setSharePrice",
      "outputs": [],
      "stateMutability": "nonpayable",
      "type": "function"
    },
    {
      "inputs": [
        {
          "internalType": "address",
          "name": "_user",
          "type": "address"
        },
        {
          "internalType": "bool",
          "name": "_status",
          "type": "bool"
        }
      ],
      "name": "setWhitelist",
      "outputs": [],
      "stateMutability": "nonpayable",
      "type": "function"
    },
    {
      "inputs": [],
      "name": "sharePrice",
      "outputs": [
        {
          "internalType": "uint256",
          "name": "",
          "type": "uint256"
        }
      ],
      "stateMutability": "view",
      "type": "function"
    },
    {
      "inputs": [],
      "name": "symbol",
      "outputs": [
        {
          "internalType": "string",
          "name": "",
          "type": "string"
        }
      ],
      "stateMutability": "view",
      "type": "function"
    },
    {
      "inputs": [],
      "name": "tailNumber",
      "outputs": [
        {
          "internalType": "string",
          "name": "",
          "type": "string"
        }
      ],
      "stateMutability": "view",
      "type": "function"
    },
    {
      "inputs": [],
      "name": "totalDividends",
      "outputs": [
        {
          "internalType": "uint256",
          "name": "",
          "type": "uint256"
        }
      ],
      "stateMutability": "view",
      "type": "function"
    },
    {
      "inputs": [],
      "name": "totalSupply",
      "outputs": [
        {
          "internalType": "uint256",
          "name": "",
          "type": "uint256"
        }
      ],
      "stateMutability": "view",
      "type": "function"
    },
    {
      "inputs": [
        {
          "internalType": "address",
          "name": "to",
          "type": "address"
        },
        {
          "internalType": "uint256",
          "name": "value",
          "type": "uint256"
        }
      ],
      "name": "transfer",
      "outputs": [
        {
          "internalType": "bool",
          "name": "",
          "type": "bool"
        }
      ],
      "stateMutability": "nonpayable",
      "type": "function"
    },
    {
      "inputs": [
        {
          "internalType": "address",
          "name": "from",
          "type": "address"
        },
        {
          "internalType": "address",
          "name": "to",
          "type": "address"
        },
        {
          "internalType": "uint256",
          "name": "value",
          "type": "uint256"
        }
      ],
      "name": "transferFrom",
      "outputs": [
        {
          "internalType": "bool",
          "name": "",
          "type": "bool"
        }
      ],
      "stateMutability": "nonpayable",
      "type": "function"
    },
    {
      "inputs": [
        {
          "internalType": "address",
          "name": "newOwner",
          "type": "address"
        }
      ],
      "name": "transferOwnership",
      "outputs": [],
      "stateMutability": "nonpayable",
      "type": "function"
    },
    {
      "inputs": [
        {
          "internalType": "address",
          "name": "_owner",
          "type": "address"
        }
      ],
      "name": "withdrawableDividendOf",
      "outputs": [
        {
          "internalType": "uint256",
          "name": "",
          "type": "uint256"
        }
      ],
      "stateMutability": "view",
      "type": "function"
    },
    {
      "inputs": [
        {
          "internalType": "address",
          "name": "",
          "type": "address"
        }
      ],
      "name": "withdrawnDividends",
      "outputs": [
        {
          "internalType": "uint256",
          "name": "",
          "type": "uint256"
        }
      ],
      "stateMutability": "view",
      "type": "function"
    },
    {
      "stateMutability": "payable",
      "type": "receive"
    }
  ],
  "bytecode": "0x60806040523480156200001157600080fd5b50604051620033873803806200338783398181016040528101906200003791906200036c565b838333600073ffffffffffffffffffffffffffffffffffffffff168173ffffffffffffffffffffffffffffffffffffffff1603620000af5760006040517f1e4fbdf7000000000000000000000000000000000000000000000000000000008152600401620000a691906200049f565b60405180910390fd5b620000c0816200011560201b60201c565b508160069081620000d2919062000707565b508060079081620000e4919062000707565b50505081600e9081620000f8919062000707565b5080600f90816200010a919062000707565b5050505050620007ee565b60008060009054906101000a900473ffffffffffffffffffffffffffffffffffffffff169050816000806101000a81548173ffffffffffffffffffffffffffffffffffffffff021916908373ffffffffffffffffffffffffffffffffffffffff1602179055508173ffffffffffffffffffffffffffffffffffffffff168173ffffffffffffffffffffffffffffffffffffffff167f8be0079c531659141344cd1fd0a4f28419497f9722a3daafe3b4186f6b6457e060405160405180910390a35050565b6000604051905090565b600080fd5b600080fd5b600080fd5b600080fd5b6000601f19601f8301169050919050565b7f4e487b7100000000000000000000000000000000000000000000000000000000600052604160045260246000fd5b6200024282620001f7565b810181811067ffffffffffffffff8211171562000264576200026362000208565b5b80604052505050565b600062000279620001d9565b905062000287828262000237565b919050565b600067ffffffffffffffff821115620002aa57620002a962000208565b5b620002b582620001f7565b9050602081019050919050565b60005b83811015620002e2578082015181840152602081019050620002c5565b60008484015250505050565b600062000305620002ff846200028c565b6200026d565b905082815260208101848484011115620003245762000323620001f2565b5b62000331848285620002c2565b509392505050565b600082601f830112620003515762000350620001ed565b5b815162000363848260208601620002ee565b91505092915050565b60008060008060808587031215620003895762000388620001e3565b5b600085015167ffffffffffffffff811115620003aa57620003a9620001e8565b5b620003b88782880162000339565b945050602085015167ffffffffffffffff811115620003dc57620003db620001e8565b5b620003ea8782880162000339565b935050604085015167ffffffffffffffff8111156200040e576200040d620001e8565b5b6200041c8782880162000339565b925050606085015167ffffffffffffffff81111562000440576200043f620001e8565b5b6200044e8782880162000339565b91505092959194509250565b600073ffffffffffffffffffffffffffffffffffffffff82169050919050565b600062000487826200045a565b9050919050565b62000499816200047a565b82525050565b6000602082019050620004b660008301846200048e565b92915050565b600081519050919050565b7f4e487b7100000000000000000000000000000000000000000000000000000000600052602260045260246000fd5b600060028204905060018216806200050f57607f821691505b602082108103620005255762000524620004c7565b5b50919050565b60008190508160005260206000209050919050565b60006020601f8301049050919050565b600082821b905092915050565b6000600883026200058f7fffffffffffffffffffffffffffffffffffffffffffffffffffffffffffffffff8262000550565b6200059b868362000550565b95508019841693508086168417925050509392505050565b6000819050919050565b6000819050919050565b6000620005e8620005e2620005dc84620005b3565b620005bd565b620005b3565b9050919050565b6000819050919050565b6200060483620005c7565b6200061c6200061382620005ef565b8484546200055d565b825550505050565b600090565b6200063362000624565b62000640818484620005f9565b505050565b5b8181101562000668576200065c60008262000629565b60018101905062000646565b5050565b601f821115620006b75762000681816200052b565b6200068c8462000540565b810160208510156200069c578190505b620006b4620006ab8562000540565b83018262000645565b50505b505050565b600082821c905092915050565b6000620006dc60001984600802620006bc565b1980831691505092915050565b6000620006f78383620006c9565b9150826002028217905092915050565b6200071282620004bc565b67ffffffffffffffff8111156200072e576200072d62000208565b5b6200073a8254620004f6565b620007478282856200066c565b600060209050601f8311600181146200077f57600084156200076a578287015190505b620007768582620006e9565b865550620007e6565b601f1984166200078f866200052b565b60005b82811015620007b95784890151825560018201915060208501945060208101905062000792565b86831015620007d95784890151620007d5601f891682620006c9565b8355505b6001600288020188555050505b505050505050565b612b8980620007fe6000396000f3fe6080604052600436106101d15760003560e01c8063715018a6116100f7578063a9059cbb11610095578063d897833e11610064578063d897833e1461066f578063dd62ed3e14610698578063de3aaf61146106d5578063f2fde38b14610712576101eb565b8063a9059cbb146105c2578063ba4507a6146105ff578063bed930bb1461062a578063d1a93d1814610653576101eb565b80638da5cb5b116100d15780638da5cb5b1461050457806395d89b411461052f578063997664d71461055a578063a8b9d24014610585576101eb565b8063715018a61461049757806374754282146104ae57806387269729146104d9576101eb565b80633af32abf1161016f57806353d6fd591161013e57806353d6fd59146103da57806359f4708414610403578063668038e01461044357806370a082311461045a576101eb565b80633af32abf1461033f5780633dd4885c1461037c57806344e43cb8146103a7578063528c198a146103b1576101eb565b806318160ddd116101ab57806318160ddd146102815780631a081330146102ac57806323b872dd146102d7578063313ce56714610314576101eb565b806306fdde03146101f0578063095ea7b31461021b57806316b6024914610258576101eb565b366101eb5760003411156101e9576101e83461073b565b5b005b600080fd5b3480156101fc57600080fd5b50610205610836565b6040516102129190611de9565b60405180910390f35b34801561022757600080fd5b50610242600480360381019061023d9190611eb3565b6108c8565b60405161024f9190611f0e565b60405180910390f35b34801561026457600080fd5b5061027f600480360381019061027a9190611f29565b6108eb565b005b34801561028d57600080fd5b50610296610934565b6040516102a39190611f65565b60405180910390f35b3480156102b857600080fd5b506102c161093e565b6040516102ce9190611f0e565b60405180910390f35b3480156102e357600080fd5b506102fe60048036038101906102f99190611f80565b610951565b60405161030b9190611f0e565b60405180910390f35b34801561032057600080fd5b50610329610980565b6040516103369190611fef565b60405180910390f35b34801561034b57600080fd5b506103666004803603810190610361919061200a565b610989565b6040516103739190611f0e565b60405180910390f35b34801561038857600080fd5b506103916109a9565b60405161039e9190611f65565b60405180910390f35b6103af6109b6565b005b3480156103bd57600080fd5b506103d860048036038101906103d39190611eb3565b6109c9565b005b3480156103e657600080fd5b5061040160048036038101906103fc9190612063565b6109df565b005b34801561040f57600080fd5b5061042a60048036038101906104259190611f29565b610a90565b60405161043a94939291906120a3565b60405180910390f35b34801561044f57600080fd5b50610458610be0565b005b34801561046657600080fd5b50610481600480360381019061047c919061200a565b610d84565b60405161048e9190611f65565b60405180910390f35b3480156104a357600080fd5b506104ac610dcd565b005b3480156104ba57600080fd5b506104c3610de1565b6040516104d09190611de9565b60405180910390f35b3480156104e557600080fd5b506104ee610e6f565b6040516104fb9190611f65565b60405180910390f35b34801561051057600080fd5b50610519610e75565b6040516105269190612105565b60405180910390f35b34801561053b57600080fd5b50610544610e9e565b6040516105519190611de9565b60405180910390f35b34801561056657600080fd5b5061056f610f30565b60405161057c9190611f65565b60405180910390f35b34801561059157600080fd5b506105ac60048036038101906105a7919061200a565b610f36565b6040516105b99190611f65565b60405180910390f35b3480156105ce57600080fd5b506105e960048036038101906105e49190611eb3565b610f92565b6040516105f69190611f0e565b60405180910390f35b34801561060b57600080fd5b50610614610fb5565b6040516106219190611de9565b60405180910390f35b34801561063657600080fd5b50610651600480360381019061064c9190612255565b611043565b005b61066d60048036038101906106689190611f29565b611129565b005b34801561067b57600080fd5b50610696600480360381019061069191906122e0565b6112cb565b005b3480156106a457600080fd5b506106bf60048036038101906106ba919061230d565b6112f0565b6040516106cc9190611f65565b60405180910390f35b3480156106e157600080fd5b506106fc60048036038101906106f7919061200a565b611377565b6040516107099190611f65565b60405180910390f35b34801561071e57600080fd5b506107396004803603810190610734919061200a565b61138f565b005b6000610745610934565b11610785576040517f08c379a000000000000000000000000000000000000000000000000000000000815260040161077c90612399565b60405180910390fd5b61078d610934565b700100000000000000000000000000000000826107aa91906123e8565b6107b49190612459565b600b60008282546107c5919061248a565b9250508190555080600a60008282546107de919061248a565b925050819055503373ffffffffffffffffffffffffffffffffffffffff167f630819c75b5dd0ad6507f10e821c0d57f89fa4d9005de30999ec5380475c190e8260405161082b9190611f65565b60405180910390a250565b606060068054610845906124ed565b80601f0160208091040260200160405190810160405280929190818152602001828054610871906124ed565b80156108be5780601f10610893576101008083540402835291602001916108be565b820191906000526020600020905b8154815290600101906020018083116108a157829003601f168201915b5050505050905090565b6000806108d3611415565b90506108e081858561141d565b600191505092915050565b6108f361142f565b806008819055507fce44720b7462058f31ddecab3daa427921e5975d9acb555f043682dada866569816040516109299190611f65565b60405180910390a150565b6000600554905090565b600960009054906101000a900460ff1681565b60008061095c611415565b90506109698582856114b6565b61097485858561154b565b60019150509392505050565b60006012905090565b60016020528060005260406000206000915054906101000a900460ff1681565b6000600280549050905090565b6109be61142f565b6109c73461073b565b565b6109d161142f565b6109db828261163f565b5050565b6109e761142f565b80600160008473ffffffffffffffffffffffffffffffffffffffff1673ffffffffffffffffffffffffffffffffffffffff16815260200190815260200160002060006101000a81548160ff0219169083151502179055508173ffffffffffffffffffffffffffffffffffffffff167ff93f9a76c1bf3444d22400a00cb9fe990e6abe9dbb333fda48859cfee864543d82604051610a849190611f0e565b60405180910390a25050565b60028181548110610aa057600080fd5b9060005260206000209060040201600091509050806000015490806001018054610ac9906124ed565b80601f0160208091040260200160405190810160405280929190818152602001828054610af5906124ed565b8015610b425780601f10610b1757610100808354040283529160200191610b42565b820191906000526020600020905b815481529060010190602001808311610b2557829003601f168201915b505050505090806002015490806003018054610b5d906124ed565b80601f0160208091040260200160405190810160405280929190818152602001828054610b89906124ed565b8015610bd65780601f10610bab57610100808354040283529160200191610bd6565b820191906000526020600020905b815481529060010190602001808311610bb957829003601f168201915b5050505050905084565b6000610beb33610f36565b905060008111610c30576040517f08c379a0000000000000000000000000000000000000000000000000000000008152600401610c279061256a565b60405180910390fd5b80600d60003373ffffffffffffffffffffffffffffffffffffffff1673ffffffffffffffffffffffffffffffffffffffff1681526020019081526020016000206000828254610c7f919061248a565b9250508190555060003373ffffffffffffffffffffffffffffffffffffffff1682604051610cac906125bb565b60006040518083038185875af1925050503d8060008114610ce9576040519150601f19603f3d011682016040523d82523d6000602084013e610cee565b606091505b5050905080610d32576040517f08c379a0000000000000000000000000000000000000000000000000000000008152600401610d299061261c565b60405180910390fd5b3373ffffffffffffffffffffffffffffffffffffffff167f16b8533c95f66ab8c192c98ddcf5031bcb3ee6f4022988bdadd57d3422da307383604051610d789190611f65565b60405180910390a25050565b6000600360008373ffffffffffffffffffffffffffffffffffffffff1673ffffffffffffffffffffffffffffffffffffffff168152602001908152602001600020549050919050565b610dd561142f565b610ddf60006116c1565b565b600f8054610dee906124ed565b80601f0160208091040260200160405190810160405280929190818152602001828054610e1a906124ed565b8015610e675780601f10610e3c57610100808354040283529160200191610e67565b820191906000526020600020905b815481529060010190602001808311610e4a57829003601f168201915b505050505081565b60085481565b60008060009054906101000a900473ffffffffffffffffffffffffffffffffffffffff16905090565b606060078054610ead906124ed565b80601f0160208091040260200160405190810160405280929190818152602001828054610ed9906124ed565b8015610f265780601f10610efb57610100808354040283529160200191610f26565b820191906000526020600020905b815481529060010190602001808311610f0957829003601f168201915b5050505050905090565b600a5481565b6000600d60008373ffffffffffffffffffffffffffffffffffffffff1673ffffffffffffffffffffffffffffffffffffffff16815260200190815260200160002054610f8183611785565b610f8b919061263c565b9050919050565b600080610f9d611415565b9050610faa81858561154b565b600191505092915050565b600e8054610fc2906124ed565b80601f0160208091040260200160405190810160405280929190818152602001828054610fee906124ed565b801561103b5780601f106110105761010080835404028352916020019161103b565b820191906000526020600020905b81548152906001019060200180831161101e57829003601f168201915b505050505081565b61104b61142f565b600260405180608001604052804281526020018581526020018481526020018381525090806001815401808255809150506001900390600052602060002090600402016000909190919091506000820151816000015560208201518160010190816110b6919061281c565b506040820151816002015560608201518160030190816110d6919061281c565b50505060016002805490506110eb919061263c565b7f9475bb367c636d9a6d78c4edae430d4d6949fc67b1af8dbdf3e6e698c5ff68f0848460405161111c9291906128ee565b60405180910390a2505050565b600960009054906101000a900460ff16611178576040517f08c379a000000000000000000000000000000000000000000000000000000000815260040161116f9061296a565b60405180910390fd5b6000600854116111bd576040517f08c379a00000000000000000000000000000000000000000000000000000000081526004016111b4906129d6565b60405180910390fd5b6000600854826111cd91906123e8565b905080341015611212576040517f08c379a000000000000000000000000000000000000000000000000000000000815260040161120990612a42565b60405180910390fd5b61121c338361163f565b80341115611277573373ffffffffffffffffffffffffffffffffffffffff166108fc823461124a919061263c565b9081150290604051600060405180830381858888f19350505050158015611275573d6000803e3d6000fd5b505b3373ffffffffffffffffffffffffffffffffffffffff167f630b54f21d1c5ae41c4633ad96e8c15ce15665365eded6a38476ffa71c8ace6c83836040516112bf929190612a62565b60405180910390a25050565b6112d361142f565b80600960006101000a81548160ff02191690831515021790555050565b6000600460008473ffffffffffffffffffffffffffffffffffffffff1673ffffffffffffffffffffffffffffffffffffffff16815260200190815260200160002060008373ffffffffffffffffffffffffffffffffffffffff1673ffffffffffffffffffffffffffffffffffffffff16815260200190815260200160002054905092915050565b600d6020528060005260406000206000915090505481565b61139761142f565b600073ffffffffffffffffffffffffffffffffffffffff168173ffffffffffffffffffffffffffffffffffffffff16036114095760006040517f1e4fbdf70000000000000000000000000000000000000000000000000000000081526004016114009190612105565b60405180910390fd5b611412816116c1565b50565b600033905090565b61142a838383600161180a565b505050565b611437611415565b73ffffffffffffffffffffffffffffffffffffffff16611455610e75565b73ffffffffffffffffffffffffffffffffffffffff16146114b457611478611415565b6040517f118cdaa70000000000000000000000000000000000000000000000000000000081526004016114ab9190612105565b60405180910390fd5b565b60006114c284846112f0565b90507fffffffffffffffffffffffffffffffffffffffffffffffffffffffffffffffff8110156115455781811015611535578281836040517ffb8f41b200000000000000000000000000000000000000000000000000000000815260040161152c93929190612a8b565b60405180910390fd5b6115448484848403600061180a565b5b50505050565b600073ffffffffffffffffffffffffffffffffffffffff168373ffffffffffffffffffffffffffffffffffffffff16036115bd5760006040517f96c6fd1e0000000000000000000000000000000000000000000000000000000081526004016115b49190612105565b60405180910390fd5b600073ffffffffffffffffffffffffffffffffffffffff168273ffffffffffffffffffffffffffffffffffffffff160361162f5760006040517fec442f050000000000000000000000000000000000000000000000000000000081526004016116269190612105565b60405180910390fd5b61163a8383836119e1565b505050565b600073ffffffffffffffffffffffffffffffffffffffff168273ffffffffffffffffffffffffffffffffffffffff16036116b15760006040517fec442f050000000000000000000000000000000000000000000000000000000081526004016116a89190612105565b60405180910390fd5b6116bd600083836119e1565b5050565b60008060009054906101000a900473ffffffffffffffffffffffffffffffffffffffff169050816000806101000a81548173ffffffffffffffffffffffffffffffffffffffff021916908373ffffffffffffffffffffffffffffffffffffffff1602179055508173ffffffffffffffffffffffffffffffffffffffff168173ffffffffffffffffffffffffffffffffffffffff167f8be0079c531659141344cd1fd0a4f28419497f9722a3daafe3b4186f6b6457e060405160405180910390a35050565b6000700100000000000000000000000000000000600c60008473ffffffffffffffffffffffffffffffffffffffff1673ffffffffffffffffffffffffffffffffffffffff168152602001908152602001600020546117e284610d84565b600b546117ef91906123e8565b6117f99190612acc565b6118039190612459565b9050919050565b600073ffffffffffffffffffffffffffffffffffffffff168473ffffffffffffffffffffffffffffffffffffffff160361187c5760006040517fe602df050000000000000000000000000000000000000000000000000000000081526004016118739190612105565b60405180910390fd5b600073ffffffffffffffffffffffffffffffffffffffff168373ffffffffffffffffffffffffffffffffffffffff16036118ee5760006040517f94280d620000000000000000000000000000000000000000000000000000000081526004016118e59190612105565b60405180910390fd5b81600460008673ffffffffffffffffffffffffffffffffffffffff1673ffffffffffffffffffffffffffffffffffffffff16815260200190815260200160002060008573ffffffffffffffffffffffffffffffffffffffff1673ffffffffffffffffffffffffffffffffffffffff1681526020019081526020016000208190555080156119db578273ffffffffffffffffffffffffffffffffffffffff168473ffffffffffffffffffffffffffffffffffffffff167f8c5be1e5ebec7d5bd14f71427d1e84f3dd0314c0f7b2291e5b200ac8c7c3b925846040516119d29190611f65565b60405180910390a35b50505050565b6119ec8383836119f1565b505050565b6119fc838383611b31565b600073ffffffffffffffffffffffffffffffffffffffff168373ffffffffffffffffffffffffffffffffffffffff1614611a945780600b54611a3e91906123e8565b600c60008573ffffffffffffffffffffffffffffffffffffffff1673ffffffffffffffffffffffffffffffffffffffff1681526020019081526020016000206000828254611a8c9190612acc565b925050819055505b600073ffffffffffffffffffffffffffffffffffffffff168273ffffffffffffffffffffffffffffffffffffffff1614611b2c5780600b54611ad691906123e8565b600c60008473ffffffffffffffffffffffffffffffffffffffff1673ffffffffffffffffffffffffffffffffffffffff1681526020019081526020016000206000828254611b249190612b10565b925050819055505b505050565b600073ffffffffffffffffffffffffffffffffffffffff168373ffffffffffffffffffffffffffffffffffffffff1603611b83578060056000828254611b77919061248a565b92505081905550611c58565b6000600360008573ffffffffffffffffffffffffffffffffffffffff1673ffffffffffffffffffffffffffffffffffffffff16815260200190815260200160002054905081811015611c10578381836040517fe450d38c000000000000000000000000000000000000000000000000000000008152600401611c0793929190612a8b565b60405180910390fd5b818103600360008673ffffffffffffffffffffffffffffffffffffffff1673ffffffffffffffffffffffffffffffffffffffff16815260200190815260200160002081905550505b600073ffffffffffffffffffffffffffffffffffffffff168273ffffffffffffffffffffffffffffffffffffffff1603611ca15780600560008282540392505081905550611cef565b80600360008473ffffffffffffffffffffffffffffffffffffffff1673ffffffffffffffffffffffffffffffffffffffff168152602001908152602001600020600082825401925050819055505b8173ffffffffffffffffffffffffffffffffffffffff168373ffffffffffffffffffffffffffffffffffffffff167fddf252ad1be2c89b69c2b068fc378daa952ba7f163c4a11628f55a4df523b3ef83604051611d4c9190611f65565b60405180910390a3505050565b600081519050919050565b600082825260208201905092915050565b60005b83811015611d93578082015181840152602081019050611d78565b60008484015250505050565b6000601f19601f8301169050919050565b6000611dbb82611d59565b611dc58185611d64565b9350611dd5818560208601611d75565b611dde81611d9f565b840191505092915050565b60006020820190508181036000830152611e038184611db0565b905092915050565b6000604051905090565b600080fd5b600080fd5b600073ffffffffffffffffffffffffffffffffffffffff82169050919050565b6000611e4a82611e1f565b9050919050565b611e5a81611e3f565b8114611e6557600080fd5b50565b600081359050611e7781611e51565b92915050565b6000819050919050565b611e9081611e7d565b8114611e9b57600080fd5b50565b600081359050611ead81611e87565b92915050565b60008060408385031215611eca57611ec9611e15565b5b6000611ed885828601611e68565b9250506020611ee985828601611e9e565b9150509250929050565b60008115159050919050565b611f0881611ef3565b82525050565b6000602082019050611f236000830184611eff565b92915050565b600060208284031215611f3f57611f3e611e15565b5b6000611f4d84828501611e9e565b91505092915050565b611f5f81611e7d565b82525050565b6000602082019050611f7a6000830184611f56565b92915050565b600080600060608486031215611f9957611f98611e15565b5b6000611fa786828701611e68565b9350506020611fb886828701611e68565b9250506040611fc986828701611e9e565b9150509250925092565b600060ff82169050919050565b611fe981611fd3565b82525050565b60006020820190506120046000830184611fe0565b92915050565b6000602082840312156120205761201f611e15565b5b600061202e84828501611e68565b91505092915050565b61204081611ef3565b811461204b57600080fd5b50565b60008135905061205d81612037565b92915050565b6000806040838503121561207a57612079611e15565b5b600061208885828601611e68565b92505060206120998582860161204e565b9150509250929050565b60006080820190506120b86000830187611f56565b81810360208301526120ca8186611db0565b90506120d96040830185611f56565b81810360608301526120eb8184611db0565b905095945050505050565b6120ff81611e3f565b82525050565b600060208201905061211a60008301846120f6565b92915050565b600080fd5b600080fd5b7f4e487b7100000000000000000000000000000000000000000000000000000000600052604160045260246000fd5b61216282611d9f565b810181811067ffffffffffffffff821117156121815761218061212a565b5b80604052505050565b6000612194611e0b565b90506121a08282612159565b919050565b600067ffffffffffffffff8211156121c0576121bf61212a565b5b6121c982611d9f565b9050602081019050919050565b82818337600083830152505050565b60006121f86121f3846121a5565b61218a565b90508281526020810184848401111561221457612213612125565b5b61221f8482856121d6565b509392505050565b600082601f83011261223c5761223b612120565b5b813561224c8482602086016121e5565b91505092915050565b60008060006060848603121561226e5761226d611e15565b5b600084013567ffffffffffffffff81111561228c5761228b611e1a565b5b61229886828701612227565b93505060206122a986828701611e9e565b925050604084013567ffffffffffffffff8111156122ca576122c9611e1a565b5b6122d686828701612227565b9150509250925092565b6000602082840312156122f6576122f5611e15565b5b60006123048482850161204e565b91505092915050565b6000806040838503121561232457612323611e15565b5b600061233285828601611e68565b925050602061234385828601611e68565b9150509250929050565b7f4e6f2073686172657320746f206469737472696275746520746f000000000000600082015250565b6000612383601a83611d64565b915061238e8261234d565b602082019050919050565b600060208201905081810360008301526123b281612376565b9050919050565b7f4e487b7100000000000000000000000000000000000000000000000000000000600052601160045260246000fd5b60006123f382611e7d565b91506123fe83611e7d565b925082820261240c81611e7d565b91508282048414831517612423576124226123b9565b5b5092915050565b7f4e487b7100000000000000000000000000000000000000000000000000000000600052601260045260246000fd5b600061246482611e7d565b915061246f83611e7d565b92508261247f5761247e61242a565b5b828204905092915050565b600061249582611e7d565b91506124a083611e7d565b92508282019050808211156124b8576124b76123b9565b5b92915050565b7f4e487b7100000000000000000000000000000000000000000000000000000000600052602260045260246000fd5b6000600282049050600182168061250557607f821691505b602082108103612518576125176124be565b5b50919050565b7f4e6f206469766964656e647320746f20636c61696d0000000000000000000000600082015250565b6000612554601583611d64565b915061255f8261251e565b602082019050919050565b6000602082019050818103600083015261258381612547565b9050919050565b600081905092915050565b50565b60006125a560008361258a565b91506125b082612595565b600082019050919050565b60006125c682612598565b9150819050919050565b7f5472616e73666572206661696c65640000000000000000000000000000000000600082015250565b6000612606600f83611d64565b9150612611826125d0565b602082019050919050565b60006020820190508181036000830152612635816125f9565b9050919050565b600061264782611e7d565b915061265283611e7d565b925082820390508181111561266a576126696123b9565b5b92915050565b60008190508160005260206000209050919050565b60006020601f8301049050919050565b600082821b905092915050565b6000600883026126d27fffffffffffffffffffffffffffffffffffffffffffffffffffffffffffffffff82612695565b6126dc8683612695565b95508019841693508086168417925050509392505050565b6000819050919050565b600061271961271461270f84611e7d565b6126f4565b611e7d565b9050919050565b6000819050919050565b612733836126fe565b61274761273f82612720565b8484546126a2565b825550505050565b600090565b61275c61274f565b61276781848461272a565b505050565b5b8181101561278b57612780600082612754565b60018101905061276d565b5050565b601f8211156127d0576127a181612670565b6127aa84612685565b810160208510156127b9578190505b6127cd6127c585612685565b83018261276c565b50505b505050565b600082821c905092915050565b60006127f3600019846008026127d5565b1980831691505092915050565b600061280c83836127e2565b9150826002028217905092915050565b61282582611d59565b67ffffffffffffffff81111561283e5761283d61212a565b5b61284882546124ed565b61285382828561278f565b600060209050601f8311600181146128865760008415612874578287015190505b61287e8582612800565b8655506128e6565b601f19841661289486612670565b60005b828110156128bc57848901518255600182019150602085019450602081019050612897565b868310156128d957848901516128d5601f8916826127e2565b8355505b6001600288020188555050505b505050505050565b600060408201905081810360008301526129088185611db0565b90506129176020830184611f56565b9392505050565b7f53616c6520697320636c6f736564000000000000000000000000000000000000600082015250565b6000612954600e83611d64565b915061295f8261291e565b602082019050919050565b6000602082019050818103600083015261298381612947565b9050919050565b7f5072696365206e6f742073657400000000000000000000000000000000000000600082015250565b60006129c0600d83611d64565b91506129cb8261298a565b602082019050919050565b600060208201905081810360008301526129ef816129b3565b9050919050565b7f496e73756666696369656e742066756e64732073656e74000000000000000000600082015250565b6000612a2c601783611d64565b9150612a37826129f6565b602082019050919050565b60006020820190508181036000830152612a5b81612a1f565b9050919050565b6000604082019050612a776000830185611f56565b612a846020830184611f56565b9392505050565b6000606082019050612aa060008301866120f6565b612aad6020830185611f56565b612aba6040830184611f56565b949350505050565b6000819050919050565b6000612ad782612ac2565b9150612ae283612ac2565b925082820190508281121560008312168382126000841215161715612b0a57612b096123b9565b5b92915050565b6000612b1b82612ac2565b9150612b2683612ac2565b9250828203905081811260008412168282136000851215161715612b4d57612b4c6123b9565b5b9291505056fea264697066735822122005b5b34a70b158af9e2e7a2ab4f98ad67ca6e4d97cb02219b14ca0ac8231861c64736f6c63430008140033",
  "linkReferences": {},
  "deployedLinkReferences": {}
}